{
  "contractName": "GuessEth",
  "abi": [
    {
      "constant": true,
      "inputs": [
        {
          "name": "",
          "type": "uint256"
        }
      ],
      "name": "betNumber",
      "outputs": [
        {
          "name": "",
          "type": "address"
        }
      ],
      "payable": false,
      "stateMutability": "view",
      "type": "function"
    },
    {
      "constant": false,
      "inputs": [],
      "name": "renounceOwnership",
      "outputs": [],
      "payable": false,
      "stateMutability": "nonpayable",
      "type": "function"
    },
    {
      "constant": true,
      "inputs": [],
      "name": "owner",
      "outputs": [
        {
          "name": "",
          "type": "address"
        }
      ],
      "payable": false,
      "stateMutability": "view",
      "type": "function"
    },
    {
      "constant": true,
      "inputs": [
        {
          "name": "",
          "type": "address"
        }
      ],
      "name": "plyrIDs",
      "outputs": [
        {
          "name": "",
          "type": "uint256"
        }
      ],
      "payable": false,
      "stateMutability": "view",
      "type": "function"
    },
    {
      "constant": true,
      "inputs": [
        {
          "name": "",
          "type": "uint256"
        },
        {
          "name": "",
          "type": "uint256"
        }
      ],
      "name": "rndPlyrs",
      "outputs": [
        {
          "name": "addr",
          "type": "address"
        },
        {
          "name": "price",
          "type": "uint256"
        },
        {
          "name": "rID",
          "type": "uint256"
        },
        {
          "name": "tID",
          "type": "uint256"
        },
        {
          "name": "pID",
          "type": "uint256"
        },
        {
          "name": "value",
          "type": "uint256"
        },
        {
          "name": "result",
          "type": "bool"
        }
      ],
      "payable": false,
      "stateMutability": "view",
      "type": "function"
    },
    {
      "constant": false,
      "inputs": [
        {
          "name": "_newOwner",
          "type": "address"
        }
      ],
      "name": "transferOwnership",
      "outputs": [],
      "payable": false,
      "stateMutability": "nonpayable",
      "type": "function"
    },
    {
      "payable": true,
      "stateMutability": "payable",
      "type": "fallback"
    },
    {
      "anonymous": false,
      "inputs": [
        {
          "indexed": false,
          "name": "",
          "type": "uint256"
        },
        {
          "indexed": false,
          "name": "",
          "type": "uint256"
        },
        {
          "indexed": false,
          "name": "",
          "type": "uint256"
        }
      ],
      "name": "DrawLog",
      "type": "event"
    },
    {
      "anonymous": false,
      "inputs": [
        {
          "indexed": true,
          "name": "playerAddr",
          "type": "address"
        },
        {
          "indexed": false,
          "name": "price",
          "type": "uint256"
        },
        {
          "indexed": false,
          "name": "rID",
          "type": "uint256"
        },
        {
          "indexed": false,
          "name": "tID",
          "type": "uint256"
        },
        {
          "indexed": false,
          "name": "amount",
          "type": "uint256"
        }
      ],
      "name": "GuessEvt",
      "type": "event"
    },
    {
      "anonymous": false,
      "inputs": [
        {
          "indexed": false,
          "name": "blockNumber",
          "type": "uint256"
        },
        {
          "indexed": true,
          "name": "playerAddr",
          "type": "address"
        },
        {
          "indexed": false,
          "name": "amount",
          "type": "uint256"
        },
        {
          "indexed": false,
          "name": "winAmount",
          "type": "uint256"
        }
      ],
      "name": "WinnersEvt",
      "type": "event"
    },
    {
      "anonymous": false,
      "inputs": [
        {
          "indexed": true,
          "name": "to",
          "type": "address"
        },
        {
          "indexed": false,
          "name": "value",
          "type": "uint256"
        }
      ],
      "name": "WithdrawEvt",
      "type": "event"
    },
    {
      "anonymous": false,
      "inputs": [
        {
          "indexed": true,
          "name": "blocknumberr",
          "type": "uint256"
        },
        {
          "indexed": false,
          "name": "number",
          "type": "uint256"
        }
      ],
      "name": "DrawEvt",
      "type": "event"
    },
    {
      "anonymous": false,
      "inputs": [
        {
          "indexed": true,
          "name": "previousOwner",
          "type": "address"
        }
      ],
      "name": "OwnershipRenounced",
      "type": "event"
    },
    {
      "anonymous": false,
      "inputs": [
        {
          "indexed": true,
          "name": "previousOwner",
          "type": "address"
        },
        {
          "indexed": true,
          "name": "newOwner",
          "type": "address"
        }
      ],
      "name": "OwnershipTransferred",
      "type": "event"
    },
    {
      "constant": false,
      "inputs": [],
      "name": "getPlyrID",
      "outputs": [
        {
          "name": "",
          "type": "uint256"
        }
      ],
      "payable": true,
      "stateMutability": "payable",
      "type": "function"
    },
    {
      "constant": true,
      "inputs": [],
      "name": "getRunParam",
      "outputs": [
        {
          "name": "_unitPrice",
          "type": "uint256"
        }
      ],
      "payable": false,
      "stateMutability": "view",
      "type": "function"
    },
    {
      "constant": false,
      "inputs": [
        {
          "name": "_price",
          "type": "uint256"
        },
        {
          "name": "_rID",
          "type": "uint256"
        },
        {
          "name": "_tID",
          "type": "uint256"
        }
      ],
      "name": "guess",
      "outputs": [
        {
          "name": "",
          "type": "uint256"
        }
      ],
      "payable": true,
      "stateMutability": "payable",
      "type": "function"
    },
    {
      "constant": true,
      "inputs": [
        {
          "name": "_rID",
          "type": "uint256"
        }
      ],
      "name": "getPlayerGuessPrices",
      "outputs": [
        {
          "name": "",
          "type": "address[]"
        },
        {
          "name": "",
          "type": "uint256[]"
        },
        {
          "name": "",
          "type": "uint256[]"
        },
        {
          "name": "",
          "type": "uint256[]"
        },
        {
          "name": "",
          "type": "bool[]"
        }
      ],
      "payable": false,
      "stateMutability": "view",
      "type": "function"
    },
    {
      "constant": true,
      "inputs": [
        {
          "name": "_blockNumber",
          "type": "uint256"
        }
      ],
      "name": "getWinResults",
      "outputs": [
        {
          "name": "",
          "type": "uint256"
        }
      ],
      "payable": false,
      "stateMutability": "view",
      "type": "function"
    },
    {
      "constant": false,
      "inputs": [
        {
          "name": "_to",
          "type": "address"
        },
        {
          "name": "amount",
          "type": "uint256"
        }
      ],
      "name": "withdraw",
      "outputs": [
        {
          "name": "",
          "type": "bool"
        }
      ],
      "payable": false,
      "stateMutability": "nonpayable",
      "type": "function"
    }
  ],
  "bytecode": "0x608060405266038d7ea4c68000600455336000806101000a81548173ffffffffffffffffffffffffffffffffffffffff021916908373ffffffffffffffffffffffffffffffffffffffff1602179055506113948061005e6000396000f3006080604052600436106100ba576000357c0100000000000000000000000000000000000000000000000000000000900463ffffffff168063197cde7814610140578063492a6626146101ad578063517da0cd1461034f578063715018a61461037a5780638da5cb5b1461039157806392e30264146103e8578063d0569bc81461043f578063d20d564814610480578063ed169c9b14610525578063f2fde38b1461056d578063f3fef3a3146105b0578063fc4eddef14610615575b600080339150813b905060008114151561013c576040517f08c379a00000000000000000000000000000000000000000000000000000000081526004018080602001828103825260118152602001807f736f7272792068756d616e73206f6e6c7900000000000000000000000000000081525060200191505060405180910390fd5b5050005b34801561014c57600080fd5b5061016b60048036038101908080359060200190929190505050610633565b604051808273ffffffffffffffffffffffffffffffffffffffff1673ffffffffffffffffffffffffffffffffffffffff16815260200191505060405180910390f35b3480156101b957600080fd5b506101d860048036038101908080359060200190929190505050610666565b60405180806020018060200180602001806020018060200186810386528b818151815260200191508051906020019060200280838360005b8381101561022b578082015181840152602081019050610210565b5050505090500186810385528a818151815260200191508051906020019060200280838360005b8381101561026d578082015181840152602081019050610252565b50505050905001868103845289818151815260200191508051906020019060200280838360005b838110156102af578082015181840152602081019050610294565b50505050905001868103835288818151815260200191508051906020019060200280838360005b838110156102f15780820151818401526020810190506102d6565b50505050905001868103825287818151815260200191508051906020019060200280838360005b83811015610333578082015181840152602081019050610318565b505050509050019a505050505050505050505060405180910390f35b34801561035b57600080fd5b506103646109f7565b6040518082815260200191505060405180910390f35b34801561038657600080fd5b5061038f610a01565b005b34801561039d57600080fd5b506103a6610b03565b604051808273ffffffffffffffffffffffffffffffffffffffff1673ffffffffffffffffffffffffffffffffffffffff16815260200191505060405180910390f35b3480156103f457600080fd5b50610429600480360381019080803573ffffffffffffffffffffffffffffffffffffffff169060200190929190505050610b28565b6040518082815260200191505060405180910390f35b34801561044b57600080fd5b5061046a60048036038101908080359060200190929190505050610b40565b6040518082815260200191505060405180910390f35b34801561048c57600080fd5b506104b56004803603810190808035906020019092919080359060200190929190505050610b5d565b604051808873ffffffffffffffffffffffffffffffffffffffff1673ffffffffffffffffffffffffffffffffffffffff1681526020018781526020018681526020018581526020018481526020018381526020018215151515815260200197505050505050505060405180910390f35b610557600480360381019080803590602001909291908035906020019092919080359060200190929190505050610be8565b6040518082815260200191505060405180910390f35b34801561057957600080fd5b506105ae600480360381019080803573ffffffffffffffffffffffffffffffffffffffff169060200190929190505050610e2e565b005b3480156105bc57600080fd5b506105fb600480360381019080803573ffffffffffffffffffffffffffffffffffffffff16906020019092919080359060200190929190505050610e95565b604051808215151515815260200191505060405180910390f35b61061d610fc9565b6040518082815260200191505060405180910390f35b60036020528060005260406000206000915054906101000a900473ffffffffffffffffffffffffffffffffffffffff1681565b606080606080606060008060006060806060806060600260008f81526020019081526020016000208054905097506000965060649550876040519080825280602002602001820160405280156106cb5781602001602082028038833980820191505090505b509450876040519080825280602002602001820160405280156106fd5781602001602082028038833980820191505090505b5093508760405190808252806020026020018201604052801561072f5781602001602082028038833980820191505090505b509250876040519080825280602002602001820160405280156107615781602001602082028038833980820191505090505b509150876040519080825280602002602001820160405280156107935781602001602082028038833980820191505090505b5090506000881115156107b45784848484849c509c509c509c509c506109e6565b600096505b600260008f815260200190815260200160002080549050871080156107dd57508587105b156109d657600260008f81526020019081526020016000208781548110151561080257fe5b906000526020600020906007020160000160009054906101000a900473ffffffffffffffffffffffffffffffffffffffff16858881518110151561084257fe5b9060200190602002019073ffffffffffffffffffffffffffffffffffffffff16908173ffffffffffffffffffffffffffffffffffffffff1681525050600260008f81526020019081526020016000208781548110151561089e57fe5b90600052602060002090600702016001015484888151811015156108be57fe5b9060200190602002018181525050600260008f8152602001908152602001600020878154811015156108ec57fe5b906000526020600020906007020160030154838881518110151561090c57fe5b9060200190602002018181525050600260008f81526020019081526020016000208781548110151561093a57fe5b906000526020600020906007020160040154828881518110151561095a57fe5b9060200190602002018181525050600260008f81526020019081526020016000208781548110151561098857fe5b906000526020600020906007020160060160009054906101000a900460ff1681888151811015156109b557fe5b906020019060200201901515908115158152505086806001019750506107b9565b84848484849c509c509c509c509c505b505050505050505091939590929450565b6000600454905090565b6000809054906101000a900473ffffffffffffffffffffffffffffffffffffffff1673ffffffffffffffffffffffffffffffffffffffff163373ffffffffffffffffffffffffffffffffffffffff16141515610a5c57600080fd5b6000809054906101000a900473ffffffffffffffffffffffffffffffffffffffff1673ffffffffffffffffffffffffffffffffffffffff167ff8df31144d9c2f0f6b59d69b8b98abd5459d07f2742c4df920b25aae33c6482060405160405180910390a260008060006101000a81548173ffffffffffffffffffffffffffffffffffffffff021916908373ffffffffffffffffffffffffffffffffffffffff160217905550565b6000809054906101000a900473ffffffffffffffffffffffffffffffffffffffff1681565b60016020528060005260406000206000915090505481565b600060076000838152602001908152602001600020549050919050565b600260205281600052604060002081815481101515610b7857fe5b9060005260206000209060070201600091509150508060000160009054906101000a900473ffffffffffffffffffffffffffffffffffffffff16908060010154908060020154908060030154908060040154908060050154908060060160009054906101000a900460ff16905087565b600080610bf3611312565b600080339150813b9050600081141515610c75576040517f08c379a00000000000000000000000000000000000000000000000000000000081526004018080602001828103825260118152602001807f736f7272792068756d616e73206f6e6c7900000000000000000000000000000081525060200191505060405180910390fd5b610c7d610fc9565b935033836000019073ffffffffffffffffffffffffffffffffffffffff16908173ffffffffffffffffffffffffffffffffffffffff1681525050878360200181815250508683604001818152505085836060018181525050348360a001818152505060026000888152602001908152602001600020839080600181540180825580915050906001820390600052602060002090600702016000909192909190915060008201518160000160006101000a81548173ffffffffffffffffffffffffffffffffffffffff021916908373ffffffffffffffffffffffffffffffffffffffff1602179055506020820151816001015560408201518160020155606082015181600301556080820151816004015560a0820151816005015560c08201518160060160006101000a81548160ff0219169083151502179055505050503373ffffffffffffffffffffffffffffffffffffffff167f8eabf0b58fb72377bb17686f1bda8431dac3e6dfe9ce8490170048ff99bf2889898989346040518085815260200184815260200183815260200182815260200194505050505060405180910390a2839450505050509392505050565b6000809054906101000a900473ffffffffffffffffffffffffffffffffffffffff1673ffffffffffffffffffffffffffffffffffffffff163373ffffffffffffffffffffffffffffffffffffffff16141515610e8957600080fd5b610e92816111ff565b50565b60008060009054906101000a900473ffffffffffffffffffffffffffffffffffffffff1673ffffffffffffffffffffffffffffffffffffffff163373ffffffffffffffffffffffffffffffffffffffff16141515610ef257600080fd5b6000610f1e833073ffffffffffffffffffffffffffffffffffffffff16316112f990919063ffffffff16565b111515610f2a57600080fd5b8273ffffffffffffffffffffffffffffffffffffffff166108fc839081150290604051600060405180830381858888f19350505050158015610f70573d6000803e3d6000fd5b508273ffffffffffffffffffffffffffffffffffffffff167fa6f192ea655860a7bd5121fc34b0a39224306a8b40fe8e046146fe007b186579836040518082815260200191505060405180910390a26001905092915050565b600080600080339150813b905060008114151561104e576040517f08c379a00000000000000000000000000000000000000000000000000000000081526004018080602001828103825260118152602001807f736f7272792068756d616e73206f6e6c7900000000000000000000000000000081525060200191505060405180910390fd5b6000600160003373ffffffffffffffffffffffffffffffffffffffff1673ffffffffffffffffffffffffffffffffffffffff1681526020019081526020016000205414801561110357503373ffffffffffffffffffffffffffffffffffffffff16600560008154811015156110bf57fe5b9060005260206000200160009054906101000a900473ffffffffffffffffffffffffffffffffffffffff1673ffffffffffffffffffffffffffffffffffffffff1614155b156111b757600160053390806001815401808255809150509060018203906000526020600020016000909192909190916101000a81548173ffffffffffffffffffffffffffffffffffffffff021916908373ffffffffffffffffffffffffffffffffffffffff16021790555003925082600160003373ffffffffffffffffffffffffffffffffffffffff1673ffffffffffffffffffffffffffffffffffffffff168152602001908152602001600020819055505b600160003373ffffffffffffffffffffffffffffffffffffffff1673ffffffffffffffffffffffffffffffffffffffff16815260200190815260200160002054935050505090565b600073ffffffffffffffffffffffffffffffffffffffff168173ffffffffffffffffffffffffffffffffffffffff161415151561123b57600080fd5b8073ffffffffffffffffffffffffffffffffffffffff166000809054906101000a900473ffffffffffffffffffffffffffffffffffffffff1673ffffffffffffffffffffffffffffffffffffffff167f8be0079c531659141344cd1fd0a4f28419497f9722a3daafe3b4186f6b6457e060405160405180910390a3806000806101000a81548173ffffffffffffffffffffffffffffffffffffffff021916908373ffffffffffffffffffffffffffffffffffffffff16021790555050565b600082821115151561130757fe5b818303905092915050565b60e060405190810160405280600073ffffffffffffffffffffffffffffffffffffffff168152602001600081526020016000815260200160008152602001600081526020016000815260200160001515815250905600a165627a7a72305820ccd1318543135ac909de0e2b55db174dd0bdac4595a69b26fc8660fa0452a1fb0029",
  "source": "pragma solidity ^0.4.24;\n\nimport \"openzeppelin-solidity/contracts/math/SafeMath.sol\";\nimport \"openzeppelin-solidity/contracts/ownership/Ownable.sol\";\n// import {utils} from \"./utils.sol\";\nimport \"./Utils.sol\";\nimport \"./GuessEvents.sol\";\n\n\ncontract GuessEth is Ownable, GuessEvents {\n    using SafeMath for uint;\n\n    /* Player guess */\n    struct PlyrData {\n        address addr; // addr \n        uint price; // price\n        uint rID; // \n        uint tID;\n        uint pID;\n        uint value;\n        bool result;\n    }\n\n    /* plyr address => plyr ID */\n    mapping(address => uint) public plyrIDs;\n    /* rndID => PlyrData */\n    mapping(uint => PlyrData[]) public rndPlyrs;\n    mapping(uint => address) public betNumber;\n\n    uint private unitPrice = 1 finney; // 0.001 ether\n    address[] private plyrs;\n    \n    /* Awards Records */\n    struct Winner {\n        bool result;\n        uint price;\n    }\n    \n    /* rndID => winner */\n    mapping(uint => Winner) private winners;\n    mapping(uint => uint) private winResult;\n    \n    address private wallet1;\n    address private wallet2;\n   \n    /**\n    * @dev prevents contracts from interacting with fomo3d\n    */\n    modifier isHuman() {\n        address _addr = msg.sender;\n        uint256 _codeLength;\n    \n        assembly {_codeLength := extcodesize(_addr)}\n        require(_codeLength == 0, \"sorry humans only\");\n        _;\n    }\n    \n    // constructor (address _wallet1, address _wallet2) public {\n    //     wallet1 = _wallet1;\n    //     wallet2 = _wallet2;\n\n    //    // \n    //     uint id = plyrs.push(msg.sender) - 1;\n    //     plyrIDs[msg.sender] = id;\n    // }\n\n    function getPlyrID() public payable isHuman() returns (uint) {\n        // new player\n        if (plyrIDs[msg.sender] == 0 && plyrs[0] != msg.sender) {\n            uint id = plyrs.push(msg.sender) - 1;\n            plyrIDs[msg.sender] = id;\n        }\n        return(plyrIDs[msg.sender]);\n    }\n    \n    /**\n    @dev dapp initialize runtime params when launch\n    _unitPrice, _multProduct, \n     */\n    function getRunParam() public view returns (uint _unitPrice) {\n        return(unitPrice);\n    }\n\n    /**\n    @dev guess entry\n    @param _price price of guess\n    @param _rID round id\n    @param _tID team id\n     */\n    function guess(uint _price, uint _rID, uint _tID) public payable isHuman() returns(uint) {\n       \n        uint pID = getPlyrID();\n        // for {}\n        // require(rndPlyrs[_rID][pID] == 0);\n\n        // save to rnd plyr' list\n        PlyrData memory b;\n            \n        b.addr = msg.sender;\n        b.price = _price;\n        b.rID = _rID;\n        b.tID = _tID;\n        b.value = msg.value;\n        // b.result = 0;\n    \n        rndPlyrs[_rID].push(b);\n        \n        emit GuessEvt(msg.sender, _price, _rID, _tID, msg.value);\n\n        return pID;\n    }\n    \n    function getPlayerGuessPrices(uint _rID) public view returns (address[], uint[], uint[], uint[], bool[]) {\n        uint _c = rndPlyrs[_rID].length;\n        uint _i=0;\n\n        uint limitRows=100;\n\n        address[] memory _addrs = new address[](_c);\n        uint[] memory _prices = new uint[](_c);\n        uint[] memory _tIDs = new uint[](_c);\n        uint[] memory _pIDs=new uint[](_c);\n        bool[] memory _res=new bool[](_c);\n        \n        if (_c <= 0) {\n            return(_addrs, _prices, _tIDs, _pIDs, _res);\n        }\n\n        for (_i = 0; _i < rndPlyrs[_rID].length && _i < limitRows; _i++) {\n            _addrs[_i] = rndPlyrs[_rID][_i].addr;\n            _prices[_i] = rndPlyrs[_rID][_i].price;\n            _tIDs[_i] = rndPlyrs[_rID][_i].tID;\n            _pIDs[_i] = rndPlyrs[_rID][_i].pID;\n            _res[_i] = rndPlyrs[_rID][_i].result;\n        }\n\n        return(_addrs, _prices, _tIDs, _pIDs, _res);\n    }\n\n    // function draw(uint _blockNumber,uint _blockTimestamp) public onlyOwner returns (uint) {\n    //     require(block.number >= curOpenBNumber + blockInterval);\n\n    //     /*Set open Result*/\n    //     curOpenBNumber=_blockNumber;\n    //     uint result=_blockTimestamp % numberRange;\n    //     winResult[_blockNumber]=result;\n\n    //     for(uint _i=0;_i < bets[_blockNumber].length;_i++){\n    //         //result+=1;\n            \n            \n    //         if(bets[_blockNumber][_i].number==result){\n    //             bets[_blockNumber][_i].result = 1;\n    //             bets[_blockNumber][_i].price = bets[_blockNumber][_i].value * odds;\n                \n    //             emit winnersEvt(_blockNumber,bets[_blockNumber][_i].addr,bets[_blockNumber][_i].value,bets[_blockNumber][_i].price);\n\n    //             withdraw(bets[_blockNumber][_i].addr,bets[_blockNumber][_i].price);\n\n    //         }else{\n    //             bets[_blockNumber][_i].result = 0;\n    //             bets[_blockNumber][_i].price = 0;\n    //         }\n    //     }\n        \n    //     emit drawEvt(_blockNumber, curOpenBNumber);\n        \n    //     return result;\n    // }\n    \n    // function getWinners(uint _rID) public view returns(address, uint, uint){\n    //     uint _count=winners[_blockNumber].length;\n        \n    //     address[] memory _addresses = new address[](_count);\n    //     uint[] memory _price = new uint[](_count);\n        \n    //     uint _i=0;\n    //     for(_i=0;_i<_count;_i++){\n    //         //_addresses[_i] = winners[_blockNumber][_i].addr;\n    //         _price[_i] = winners[_blockNumber][_i].price;\n    //     }\n\n    //     return (_addresses, _price);\n    // }\n\n    function getWinResults(uint _blockNumber) view public returns(uint){\n        return winResult[_blockNumber];\n    }\n    \n    function withdraw(address _to, uint amount) public onlyOwner returns(bool) {\n        require(address(this).balance.sub(amount) > 0);\n        _to.transfer(amount);\n        \n        emit WithdrawEvt(_to, amount);\n        return true;\n    }\n\n    function() public payable isHuman() {\n\n    }\n}",
  "sourcePath": "/Users/lihongzhen/Desktop/UTour/DApps/GuessPrice/contracts/Guess.sol",
  "compiler": {
    "name": "solc",
    "version": "0.4.24+commit.e67f0147.Emscripten.clang"
  },
  "schemaVersion": "2.0.1",
  "updatedAt": "2018-08-15T17:01:07.020Z"
}